:020000040800F2
:10000000804A00202903000845F30008CDAE00080F
:1000100041F30008437600080502010800000000D3
:1000200000000000000000000000000019F60008B9
:100030004D7A000800000000F9020008D5F600081B
:100040005D020108430300084303000805F50008AA
:1000500043030008430300084F7A000843030008E5
:10006000657A00086F7A000843030008430300081C
:100070004303000843030008430300084303000848
:100080004303000843030008430300084303000838
:100090004303000843030008430300084303000828
:1000A0004303000843030008430300084303000818
:1000B00043030008A1F80008DDF800084303000826
:1000C00043030008430300084303000843030008F8
:1000D000430300081D01010843030008430300080F
:1000E000597A000881F3000843030008430300081D
:1000F00043030008430300084303000843030008C8
:10010000430300084303000819F9000843030008EB
:1001100043030008430300084303000843030008A7
:100120004303000843030008430300084303000897
:100130004303000843030008430300084303000887
:100140004303000843030008430300084303000877
:100150004303000843030008430300084303000867
:100160004303000843030008430300084303000857
:100170004303000843030008430300080000000095
:100180004303000843030008430300084303000837
:100190004303000843030008430300084303000827
:1001A00043030008430300084303000800F002F87B
:1001B00000F092F80AA090E8000C82448344AAF16F
:1001C0000107DA4501D100F087F8AFF2090EBAE86D
:1001D0000F0013F0010F18BFFB1A43F0010318477B
:1001E00024E4010044E40100103A24BF78C878C137
:1001F000FAD8520724BF30C830C144BF04680C602D
:10020000704700000023002400250026103A28BF74
:1002100078C1FBD8520728BF30C148BF0B60704778
:100220006E2905F0E887702905F0CB84662918F05F
:100230000E85652918F00B85672918F00885612956
:1002400018F0078503681B0A28BF41F0800169295F
:1002500005F03C84642905F03984752905F036845D
:100260006F2906F0D782782905F09784E92906F0EE
:100270007182E42906F06E82F52906F06B82EF297F
:1002800006F0D482F82905F096840368DB0928BFBC
:1002900041F08001632906F0E984732906F0EE84B9
:1002A000E32906F0F984F32906F0FE840020704764
:1002B0001FB518F07EFC06F0C3FA040000200021F0
:1002C00017F080FD401C60600020002117F064FDE5
:1002D000E0601FBD10B510BD06F080FD1146FFF7B0
:1002E000E7FF15F087F906F0A7FD03B4FFF7F2FF6B
:1002F00003BC11F02AFB0000EFF3098020B120E9D4
:10030000F00F074909680860054806490A68026055
:100310001068B0E8F00F80F309886FF0120E704794
:100320009C000020A00000200948804709480047A1
:10033000FEE7FEE7FEE7FEE7FEE7FEE7FEE7FEE795
:10034000FEE7FEE704480549054A064B70470000F2
:10035000F9F70008AD01000880440020804A002021
:100360008046002080460020FE4880ED3A0A704713
:100370002DE9F047DFF8EC9300262DED0A8B0446BB
:10038000B0EE408AF0EE608A884635463746D9F8A6
:10039000AC0018F010F853EC182B18F037F86FD3A6
:1003A000D9F8B00018F007F853EC182B18F068F9DA
:1003B000F5D3B4F90000B4F90610401A17F0FBFFAA
:1003C00053EC182B18F022F800D20126B4F90E00D5
:1003D000B4F91410401A17F0EEFF53EC182B18F074
:1003E00015F800D2761CB4F91C00B4F92210401A9A
:1003F00017F0E1FF53EC182B18F008F800D2761C28
:100400009FEDD90B012E3BDC53EC102B51EC180B5C
:1004100018F038F88946064649EC180BB4F9000084
:10042000B4F90610401A17F0C6FF53EC182B18F059
:1004300027F900D20125B4F90E00B4F9141049ECE3
:10044000186B401A17F0B7FF53EC182B18F018F977
:1004500000D26D1CB4F91C00B4F9221049EC186BE1
:10046000401A17F0A8FF53EC182B18F009F900D226
:100470006D1C002D05DD0220BDEC0A8BBDE8F08768
:1004800065E000269FEDBACB06EB460904EB890533
:10049000B5F90A0017F08FFF98ED048B53EC182B79
:1004A00018F0FCF941EC190BB5F9040017F083FFC3
:1004B00053EC182B18F0F2F953EC192B17F0E2FF5C
:1004C00041EC190BB5F9080017F075FF98ED028B98
:1004D00053EC182B18F0E2F941EC1A0BB5F90200B5
:1004E00017F069FF53EC182B18F0D8F953EC1A2BBE
:1004F00017F0C8FF41EC1A0BB5F9060017F05BFFC7
:1005000098ED008B53EC182B18F0C8F941EC1B0B3D
:1005100034F9290017F04FFF53EC182B18F0BEF9EF
:1005200053EC1B2B17F0AEFF53EC1A2B17F09EFC6D
:1005300053EC192B17F09AFC53EC1C2B17F066FFA9
:1005400000D27F1C761C032E9EDB022F01DA0120D5
:1005500092E7002090E788490A684B68D00180EA5A
:10056000D20080EA031048608B68520380EAC3031C
:1005700082EA5312520282EAD0208B6008607047F0
:1005800010B52DED048BF0EE408AFFF7E4FF00EE8E
:10059000100AB8EE400ADFED790A20EE200A9FED3E
:1005A000789A20EE090A10F00BF9B0EE408AFFF7B6
:1005B000D2FF00EE100AB8EE400A20EE090AB5EEAE
:1005C000C00AF1EE10FA01D1B7EE000A10EE100ADF
:1005D00018F04EFA41EC100B10F0A6F99FED691BD4
:1005E00051EC100B53EC112B17F04CFF17F00CFCD7
:1005F00000EE100A10F07FFC20EE280A20EE080A18
:10060000BDEC048B10BD2DE9F04105462DED048BAA
:10061000B0EE608AF0EE408A0F4618EE100A18F02D
:1006200027FA97ED301B53EC112B17F02BFF41EC01
:10063000190B18EE900A18F01BFA95ED301B53ECCD
:10064000112B17F01FFF53EC192B17F00FFC002490
:10065000C5E9300118EE100A18F00AFA07EBC408D1
:1006600098ED001B53EC112B17F00CFF41EC190B0C
:1006700018EE900A18F0FCF905EBC40696ED001B85
:1006800053EC112B17F0FEFE53EC192B17F0EEFB79
:10069000C6E9000118EE100A18F0EAF998ED241BDB
:1006A00053EC112B17F0EEFE41EC190B18EE900AEB
:1006B00018F0DEF996ED241B53EC112B17F0E2FE37
:1006C00053EC192B17F0D2FB641CC6E92401062C4D
:1006D000C0DB002418EE100A18F0CAF941EC100B28
:1006E00007EBC40090ED121B51EC100B53EC112BD7
:1006F00017F0C8FE41EC190B18EE900A18F0B8F983
:1007000005EBC40696ED121B53EC112B17F0BAFE45
:1007100053EC192B17F0AAFB641CC6E91201092C33
:10072000D8DB002418EE100A18F0A2F941EC100BE7
:1007300007EBC40090ED0C1B51EC100B53EC112B8C
:1007400017F0A0FE41EC190B18EE900A18F090F982
:1007500005EBC40696ED0C1B53EC112B17F092FE23
:1007600014E00000003700200000000000000440FA
:100770000000000000000000C8000020DB0FC9409E
:100780000000802F00000000000000C053EC192B77
:1007900017F06CFB641CC6E90C01032CC2DBBDEC3A
:1007A000048BBDE8F0812DE9F04F04462DED068B5A
:1007B00083B00D46086817F0FEFD41EC1A0B68681F
:1007C00017F0F9FD41EC190BA86817F0F4FD41ECA6
:1007D000180B94ED300B9FEDFE1B51EC100B53ECFE
:1007E000112B17F043FBC4E9300194ED0C0B53ECD3
:1007F0001A2B51EC100B17F039FBC4E90C0194EDE6
:100800000E0B53EC192B51EC100B17F02FFBC4E916
:100810000E0194ED100B53EC182B51EC100B17F04C
:1008200025FBC4E9100153EC1A2B51EC1A0B17F0FD
:1008300029FE029194ED001B064653EC112B17F094
:1008400015FBC4E9000153EC192B51EC1A0B17F0FE
:1008500019FE894649EC100B94ED021B054653EC3A
:10086000112B51EC100B17F001FBC4E9020153EC02
:10087000182B51EC1A0B17F005FE8B464BEC100BA6
:1008800094ED041B804653EC112B51EC100B17F028
:10089000EDFAC4E9040153EC192B51EC190B17F0D4
:1008A000F1FD019194ED061B074653EC112B17F057
:1008B000DDFAC4E9060153EC182B51EC190B17F0C3
:1008C000E1FD009194ED081B824653EC112B17F0CB
:1008D000CDFAC4E9080153EC182B51EC180B17F0B2
:1008E000D1FD94ED0A1B53EC112B17F0BFFAC4E9AC
:1008F0000A01029953EC1A2B41EC106B51EC100BCE
:1009000017F0C0FD94ED121B53EC112B17F0AEFA4B
:1009100049EC105BC4E9120153EC192B51EC100B9C
:1009200017F0B0FD94ED141B53EC112B17F09EFA49
:100930004BEC108BC4E9140153EC182B51EC100B49
:1009400017F0A0FD94ED161B53EC112B17F08EFA47
:1009500049EC105BC4E9160153EC1A2B51EC100B57
:1009600017F090FD94ED181B53EC112B17F07EFA45
:10097000C4E91801019953EC192B41EC107B51EC9F
:10098000100B17F07FFD94ED1A1B53EC112B17F091
:100990006DFAC4E91A010099554641EC10AB0E46B8
:1009A00053EC182B51EC100B17F06CFD94ED1C1B45
:1009B00053EC112B17F05AFAC4E91C0153EC1A2B13
:1009C00051EC180B17F05EFD53EC1A2B17F05AFD83
:1009D00094ED1E1B53EC112B17F048FA46EC105BFC
:1009E000C4E91E0153EC192B51EC100B17F04AFD12
:1009F00094ED201B53EC112B17F038FAC4E92001B9
:100A000053EC182B51EC180B17F03CFD894649ECC0
:100A1000100B074653EC182B51EC100B17F032FD5E
:100A200094ED221B53EC112B17F020FAC4E922019C
:100A300053EC1A2B51EC1A0B17F024FD884648ECA6
:100A4000100B054653EC1A2B51EC100B17F01AFD46
:100A500053EC1A2B17F016FD94ED241B53EC112BBD
:100A600017F004FAC4E9240153EC192B51EC190BCB
:100A700017F008FD8A464AEC100B064653EC192B7A
:100A800051EC100B17F0FEFC53EC192B17F0FAFC8D
:100A900094ED261B53EC112B17F0E8F949EC107B71
:100AA000C4E9260153EC182B51EC100B17F0EAFCAB
:100AB00053EC182B17F0E6FC94ED281B53EC112B8C
:100AC00017F0D4F948EC105BC4E9280153EC192B5A
:100AD00051EC100B17F0D6FC53EC192B17F0D2FC8D
:100AE00094ED2A1B53EC112B17F0C0F948EC105B66
:100AF000C4E92A0153EC182B51EC100B17F0C2FC7F
:100B000053EC182B17F0BEFC94ED2C1B53EC112B5F
:100B100017F0ACF94AEC106BC4E92C0153EC182B1C
:100B200051EC100B17F0AEFC53EC182B17F0AAFC8D
:100B300094ED2E1B53EC112B17F098F9C4E92E01FC
:100B400003B0BDEC068BBDE8F08F2DE9F04F934666
:100B50002DED108B0D46044693B090ED0CEB53EC4D
:100B60001E2B51EC1E0B17F08DFC94ED000B41EC8D
:100B7000190B8DED080B94ED308B53EC102B51ECD1
:100B8000180B17F07FFC53EC192B17F087FE94ED30
:100B90000EDB41EC1F0B53EC1D2B51EC1D0B17F022
:100BA00071FC94ED060B41EC190B8DED060B53EC2B
:100BB000102B51EC180B17F065FC53EC192B17F0A8
:100BC0006DFE41EC100B8DED040B94ED10CB03E0AA
:100BD000000000000000F03F53EC1C2B51EC1C0BFC
:100BE00017F050FC94ED0A0B41EC190B8DED020B44
:100BF00053EC102B51EC180B17F044FC53EC192B51
:100C000017F04CFE41EC110B53EC1D2B8DED001B2E
:100C100051EC1E0B17F036FC94ED020B41EC190B56
:100C200053EC102B51EC180B17F02CFC53EC192B38
:100C300017F034FE41EC1B0B53EC1C2B51EC1E0B3C
:100C400017F020FC94ED040B41EC190B53EC102B26
:100C500051EC180B17F016FC53EC192B17F01EFE75
:100C600041EC1A0B53EC1C2B51EC1D0B17F00AFC3A
:100C700094ED080B41EC190B53EC102B51EC180BB5
:100C800017F000FC53EC192B17F008FE9DED020B3A
:100C900041EC190B53EC102B51EC1E0B17F0F2FB2F
:100CA00041EC110B51EC180B8DED101B94ED160B54
:100CB00053EC102B17F0E6FB41EC110B51EC1E0B23
:100CC0008DED0E1B9DED060B53EC102B17F0DAFB90
:100CD00041EC110B51EC180B8DED0C1B94ED140B2A
:100CE00053EC102B17F0CEFB41EC110B51EC1E0B0B
:100CF0008DED0A1B9DED080B53EC102B17F0C2FB7A
:100D000094ED120B41EC1E0B53EC102B51EC180B15
:100D100017F0B8FB53EC1E2B17F0C0FD9DED0A1B1E
:100D200053EC112B17F0A2F89DED0C1B53EC112B7B
:100D300017F0B4FD9DED0E1B53EC112B17F096F838
:100D40009DED101B53EC112B17F0A8FD9FEDFE1B22
:100D500053EC112B17F096FB9DED020B41EC1E0B93
:100D600053EC102B51EC1D0B17F08CFB41EC110BCD
:100D700051EC180B8DED101B94ED1C0B53EC102B4C
:100D800017F080FB41EC110B51EC1D0B8DED0E1B90
:100D90009DED060B53EC102B17F074FB41EC110B7F
:100DA00051EC180B8DED0C1B94ED1A0B53EC102B22
:100DB00017F068FB41EC110B51EC1D0B8DED0A1B7C
:100DC0009DED080B53EC102B17F05CFB94ED180B0A
:100DD00041EC1D0B53EC102B51EC180B17F052FB90
:100DE00053EC1D2B17F05AFD9DED0A1B53EC112BF4
:100DF00017F03CF89DED0C1B53EC112B17F04EFD3A
:100E00009DED0E1B53EC112B17F030F89DED101BD0
:100E100053EC112B17F042FD9FEDCB1B53EC112B24
:100E200017F030FB9DED020B41EC1D0B53EC102B2A
:100E300051EC1C0B17F026FB41EC110B51EC180B7D
:100E40008DED021B94ED220B53EC102B17F01AFBC7
:100E500041EC110B51EC1C0B8DED0A1B9DED060BAB
:100E600053EC102B17F00EFB41EC110B51EC180B4F
:100E70008DED0C1B94ED200B53EC102B17F002FBA7
:100E800041EC110B51EC1C0B8DED061B9DED080B7D
:100E900053EC102B17F0F6FA94ED1E0B41EC1C0BE3
:100EA00053EC102B51EC180B17F0ECFA53EC1C2BF5
:100EB00017F0F4FC9DED061B53EC112B16F0D6FF3A
:100EC0009DED0C1B53EC112B17F0E8FC9DED0A1B5C
:100ED00053EC112B16F0CAFF9DED021B53EC112BA6
:100EE00017F0DCFC9FED981B53EC112B17F0CAFA9E
:100EF0009DED040B41EC180B53EC102B51EC1F0B28
:100F000017F0C0FA10919DED001B824653EC112B97
:100F100017F0B8FA41EC110B53EC192B8DED0A1BAD
:100F200051EC1F0B17F0AEFA53EC192B17F0AAFA7D
:100F300041EC110B53EC1A2B8DED081B9DED040BAE
:100F400051EC100B17F09EFA814653EC1A2B1191BD
:100F500017F098FA41EC110B8DED061B9FED7C0B01
:100F600051EC1B0B53EC102B17F08CFA53EC1A2B93
:100F700017F088FA53EC192B17F084FA9DED001B3B
:100F800041EC1C0B53EC1B2B51EC110B17F07AFAB4
:100F9000074653EC1B2B029117F074FA53EC1C2BF1
:100FA00017F07CFC9DED061B53EC112B16F05EFF39
:100FB0009DED081B53EC112B16F058FF9DED0A1BFD
:100FC00053EC112B17F06AFC41EC1C0B9FED620BEC
:100FD00053EC102B17F056F97DD053EC192B51EC34
:100FE0001B0B17F04FFA53EC182B17F04BFA41EC90
:100FF000110B53EC1D2B8DED0E1B029941EC107B58
:1010000051EC100B17F03EFA41EC110B8DED0C1B5F
:101010009DED000B53EC102B9DED040B51EC100BD0
:1010200017F030FA53EC1E2B17F02CFA41EC110B91
:1010300053EC192B8DED081B51EC190B17F022FA0C
:1010400053EC1E2B17F01EFA41EC110B53EC1D2B29
:101050008DED0A1B51EC190B17F014FA41EC110B32
:1010600053EC182B8DED061B9DED040B51EC100B72
:1010700017F008FA9DED061B53EC112B17F00EFC30
:1010800053EC1A2B17F0FEF99DED0A1B53EC112BB4
:1010900016F0ECFE9DED081B53EC112B17F0FEFB38
:1010A0009DED0C1B53EC112B16F0E0FE9DED0E1B7D
:1010B00053EC112B17F0F2FB41EC100B53EC1A2BF5
:1010C0008DED060B51EC1B0B17F0DCF9884606463C
:1010D00048EC100B00E065E153EC182B51EC100BC1
:1010E00017F0D0F941EC110B53EC1E2B8DED041BC6
:1010F000029941EC107B51EC100B17F0C3F941EC55
:10110000110B51EC1F0B8DED021B9DED000B53ECF1
:10111000102B17F0B7F953EC1D2B17F0B3F941EC76
:10112000110B53EC1A2B8DED081B51EC1A0B17F019
:10113000A9F953EC1D2B17F0A5F941EC110B53EC59
:101140001E2B8DED001B0BE0000000000000E03FB7
:10115000000000000000004000000000000000004F
:1011600051EC1A0B17F08EF941EC1A0B53EC182BBB
:1011700051EC1F0B17F086F953EC1A2B17F08EFB6E
:1011800053EC192B17F07EF99DED001B53EC112B3E
:1011900016F06CFE9DED081B53EC112B17F07EFB37
:1011A0009DED021B53EC112B16F060FE9DED041B10
:1011B00053EC112B17F072FB41EC100B53EC1D2B71
:1011C0008DED040B48EC106B51EC100B17F05AF935
:1011D00041EC110B53EC1E2B8DED001B119941ECD2
:1011E000109B51EC100B17F04DF941EC110B53EC27
:1011F000182B8DED021B109941EC10AB51EC100B2C
:1012000017F040F941EC1A0B53EC1B2B51EC1B0B64
:1012100017F038F953EC182B17F034F941EC180B90
:1012200053EC1E2B51EC1B0B17F02CF941EC1B0B54
:1012300053EC1D2B51EC1F0B17F024F953EC1B2B17
:1012400017F02CFB53EC192B17F01CF953EC182B4F
:1012500016F00CFE53EC1A2B17F020FB9DED021B31
:1012600053EC112B16F002FE9DED001B53EC112BDD
:1012700017F014FB9DED060B41EC190B53EC1C2BE6
:1012800051EC100B16F0A6FE41EC180B53EC1C2B86
:1012900085ED008B9DED040B51EC100B16F09AFEC2
:1012A00041EC1A0B53EC1C2B85ED02AB51EC190BE6
:1012B00016F090FE41EC190B85ED049B94ED100B9C
:1012C00053EC102B17F0DEF894ED0E0B41EC1B0BDA
:1012D00053EC102B51EC1A0B17F0D4F894ED0C0BC7
:1012E00041EC1C0B53EC102B51EC180B17F0CAF807
:1012F00053EC1C2B16F0BAFD53EC1B2B16F0B6FD6D
:101300001FED6D1B53EC112B17F0BCF894ED061B71
:1013100094ED000B41EC1B0B53EC112B51EC100B1B
:1013200016F0A4FD94ED0A1B53EC112B16F09EFD54
:1013300053EC1B2B17F0B2FA94ED301B53EC112B2E
:1013400016F048FE41EC1B0B53EC192B51EC190B1A
:1013500017F098F841EC190B53EC1A2B51EC1A0BBF
:1013600017F090F841EC1A0B53EC182B51EC180BBA
:1013700017F088F853EC1A2B16F078FD53EC192B64
:1013800016F074FD53EC1B2B16F070FD41EC100BA6
:101390000FF074FD8BED000B012013B0BDEC108B32
:1013A000BDE8F08F0020F8E72DE9F04F0D462DED58
:1013B000108B04468BB091ED00AB53EC1A2B51EC23
:1013C0001A0B17F05FF894ED0CCB53EC1C2B17F0B5
:1013D00059F853EC1C2B17F055F894ED30FB41EC09
:1013E000180B53EC1A2B51EC1F0B17F04BF88B46D4
:1013F0004BEC100B074653EC1A2B51EC100B17F06B
:1014000041F894ED00EB53EC1E2B17F03BF853EC36
:10141000182B17F043FA41EC190B53EC1E2B51EC2F
:101420001A0B17F02FF853EC1C2B17F02BF84BEC82
:10143000107B94ED121B41EC180B53EC112B51EC6B
:10144000100B17F01FF853EC192B17F04FF953EC52
:10145000182B16F00BFD41EC1B0B1FEDC30B51ECD1
:101460001A0B53EC102B17F00DF8894649EC100BB2
:1014700095ED029B064653EC192B51EC100B17F01F
:1014800001F853EC1C2B16F0FDFF94ED0EDB53EC32
:101490001D2B16F0F7FF41EC180B1FEDD30B51EC91
:1014A0001F0B53EC102B16F0EDFF824653EC1A2B5A
:1014B000069116F0E7FF53EC192B16F0E3FF94EDBD
:1014C000021B53EC112B16F0DDFF53EC1B2B16F017
:1014D000CDFC53EC182B17F0E1F941EC180B53EC51
:1014E0001C2B51EC1A0B16F0CDFF049194ED06BBAA
:1014F000804653EC1B2B16F0C5FF41EC110B4BEC57
:10150000107B8DED001B94ED141B51EC100B53EC74
:10151000112B16F0B7FF53EC182B17F0E7F89DEDE1
:10152000001B53EC112B16F0A1FC41EC110B49EC04
:10153000106B8DED001B95ED048B51EC100B53ECF3
:10154000182B16F09FFF53EC1C2B16F09BFF94ED0D
:1015500010CB53EC1C2B16F095FF41EC110B53EC08
:101560001A2B8DED021B069941EC10AB51EC100BC0
:1015700016F088FF53EC182B16F084FF94ED041B33
:1015800053EC112B16F07EFF9DED001B53EC112B3D
:1015900016F06CFC9DED021B53EC112B17F07EF93D
:1015A00041EC100B8DED000B049994ED0AAB41EC6E
:1015B000108B53EC1A2B51EC100B16F063FF41EC1F
:1015C000110B4BEC107B8DED021B94ED161B51ECB7
:1015D000100B53EC112B16F055FF9DED001B53EC37
:1015E000112B17F083F89DED021B53EC112B16F015
:1015F0003DFC41EC110B8DED001B9FEDFE0B51EC02
:101600001E0B53EC102B16F03DFF53EC1E2B16F067
:1016100039FF41EC110B8DED021B9FEDF60B51ECE8
:101620001F0B53EC102B16F02DFF059194ED241B8E
:10163000814653EC112B16F025FF9DED001B53EC5A
:10164000112B16F013FC9DED021B53EC112B17F020
:1016500025F941EC110B53EC1E2B8DED001B51ECC9
:10166000190B16F00FFF53EC1D2B16F00BFF41EC7E
:10167000110B53EC192B8DED081B51EC1F0B16F0C1
:1016800001FF039194ED181B064653EC112B16F045
:10169000F9FE9DED001B53EC112B17F027F89DED83
:1016A000081B53EC112B16F0E1FB41EC110B8DEDF7
:1016B000001B9FEDD20B51EC1E0B53EC102B16F0C0
:1016C000E1FE8B464BEC100B054653EC1B2B51EC0B
:1016D000100B16F0D7FE41EC110B8DED081B9FEDA2
:1016E000C70B51EC1F0B53EC102B16F0CBFE0491E3
:1016F00094ED2A1B804653EC112B16F0C3FE9DED92
:10170000001B53EC112B16F0B1FB9DED081B53ECA5
:10171000112B17F0C3F841EC110B53EC1E2B8DED80
:10172000001B51EC180B16F0ADFE53EC1C2B16F001
:10173000A9FE41EC1E0B53EC182B51EC1F0B16F0BD
:10174000A1FE029194ED1E1B074653EC112B16F0DF
:1017500099FE9DED001B53EC112B16F0C7FF53ECC7
:101760001E2B16F083FB4BEC105B41EC1F0B53EC74
:101770001A2B51EC100B16F085FE41EC1E0B049950
:1017800094ED2C1B41EC108B53EC112B51EC100BF6
:1017900016F078FE53EC1F2B16F068FB53EC1E2B53
:1017A00017F07CF841EC1F0B53EC192B51EC190B83
:1017B00016F068FE53EC1D2B16F064FE53EC1D2B47
:1017C00016F060FE41EC1E0B039953EC192B41EC13
:1017D000106B51EC100B16F055FE53EC1B2B16F052
:1017E00051FE53EC1F2B16F041FB53EC1E2B17F050
:1017F00055F841EC1F0B53EC1B2B51EC190B16F059
:1018000041FE53EC1D2B16F03DFE41EC1E0B0399DF
:1018100094ED1A1B41EC106B53EC112B51EC100B97
:1018200016F030FE53EC1F2B16F060FF53EC1E2B0E
:1018300016F01CFB41EC1F0B9FED720B51EC190BCA
:1018400053EC102B16F01EFE53EC182B16F01AFE5C
:1018500053EC1D2B16F016FE53EC1C2B16F012FE4B
:1018600041EC1E0B069953EC192B41EC10AB51ECDB
:10187000100B16F007FE53EC182B16F003FE94ED38
:10188000081B53EC112B16F0FDFD53EC1F2B16F02B
:10189000EDFA53EC1E2B17F001F841EC1E0B53EC44
:1018A0001D2B51EC190B16F0EDFD53EC1A2B16F015
:1018B000E9FD41EC190B039994ED1C1B41EC106BF5
:1018C00053EC112B51EC100B16F0DCFD53EC1E2BDE
:1018D00016F00CFF53EC192B16F0C8FA41EC1D0B57
:1018E0009FED44EB51EC1B0B53EC1E2B16F0CAFD85
:1018F00053EC1B2B16F0C6FD41EC190B059994ED2A
:10190000261B41EC109B53EC112B51EC100B16F0E5
:10191000B9FD53EC1D2B16F0A9FA53EC192B16F058
:10192000BDFF41EC1D0B53EC1B2B51EC180B16F0BB
:10193000A9FD53EC1C2B16F0A5FD41EC190B0299E7
:1019400094ED201B41EC107B53EC112B51EC100B50
:1019500016F098FD53EC1D2B16F0C8FE53EC192B16
:1019600016F084FA9FED250B41EC190B53EC102B6C
:1019700051EC1B0B16F086FD53EC1A2B16F082FD72
:1019800041EC1B0B049994ED2E1B41EC108B53EC96
:10199000112B51EC100B16F075FD53EC192B16F0B2
:1019A00065FA53EC1B2B16F079FF41EC1B0B53EC43
:1019B000182B51EC180B16F065FD53EC1C2B16F090
:1019C00061FD53EC1C2B16F05DFD41EC190B0299E7
:1019D00053EC182B41EC107B51EC100B16F052FD20
:1019E00053EC1A2B16F04EFD53EC1B2B16F03EFA5F
:1019F0000CE00000000000000000D03F00000000EC
:101A00000000E03F000000000000004053EC192BF4
:101A100016F044FF41EC190B53EC1A2B51EC180B48
:101A200016F030FD53EC1C2B16F02CFD41EC180B7E
:101A3000029994ED221B41EC107B53EC112B51ECDD
:101A4000100B16F01FFD53EC192B16F04FFE53EC44
:101A5000182B16F00BFA41EC180B53EC1E2B51EC23
:101A60001A0B16F00FFD53EC1A2B16F00BFD41EC80
:101A7000190B059994ED281B41EC109B53EC112B8D
:101A800051EC100B16F0FEFC53EC182B16F0EEF98F
:101A900053EC192B16F002FF41EC100B0BB07DE458
:101AA00030B50446B0F88C0089B000040690B4F854
:101AB0008E000D4600040790B4F8900088340004AE
:101AC000089002A812F02CFB029906982B46401AA7
:101AD00006900399079806AA401A07900499089857
:101AE000401A08902088616A80B212F069F909B042
:101AF00030BDF0B50D462DED048B87B06946FFF77C
:101B0000CFFF9FEDFE8B00246F469FEDFE9A03AE44
:101B100057F8240000EE100A06EB8400B8EEC00A65
:101B200020EE090A80ED000A20EE000A10EE100AED
:101B300016F09EFF53EC182B16F098F941EC180B99
:101B4000641C032CE4DBB0EE480AF0EE680A0FF0E8
:101B500095F9B0EE408AF0EE608A002456F8240031
:101B600016F086FF53EC182B16F034FA16F04CF9E9
:101B700000EE100A05EB8400641CD0ED000A032C73
:101B800030EE200A80ED000AE8DB686D401C6865D5
:101B900012F0B6FDE86707B0BDEC048BF0BD2DE98F
:101BA000F041044612F066FB40BB12F0E7FA04284D
:101BB00024D0D54920460E46FFF79BFFD34DD5E9EB
:101BC0005C01814205DB304603F0E5FB0020C5F8EF
:101BD0007401208E4FF00406C00515D504F11800DD
:101BE00012F03AFB8009B0F5C87F0AD2D5F8B800E8
:101BF000002850DD401EC5F8B8004AE00120BDE8CD
:101C0000F081C5F8B86044E0D4F8A010D5F814010C
:101C1000081A01D4034600E04342BB4A4FF4A02C0B
:101C2000583A634505DDD4E929035365C2E9131029
:101C30002FE00312D4F8A470D5F818015B43381ACA
:101C400001D4864601E0C0F1000EE64505DDD4F87A
:101C5000A800D164C2E914701BE0001200FB00333D
:101C6000D4F8A800D5F81C11401A01D4014600E0B0
:101C7000414261450DDC001200FB0030B0F5403FF1
:101C8000B4DBA034C5F8B86094E80B004C3282E8AD
:101C90000B000020B3E70220B1E72DE9F04F9B4C89
:101CA0002DED028B93B0D4F8A81090ED000B04EB4F
:101CB000C10181ED000BD4F8A810491CC4F8A8108C
:101CC00090ED020B04EBC10181ED000BD4F8A810DC
:101CD000491CC4F8A81090ED040B04EBC10080ED82
:101CE000000BD4F8A800401CC4F8A800152802DB9B
:101CF0000020C4F8A800182284490CA804F0A1F818
:101D00001822824904A804F09CF801260DF1300A3B
:101D10000DF1100BA146002406EB460808EB040168
:101D200009EBC1050AEBC40795ED001B97ED000B0D
:101D300053EC112B51EC100B16F0A2FC03D295EDD5
:101D4000000B87ED000B0BEBC40795ED001B97ED27
:101D5000000B53EC112B51EC100B16F057FB03D278
:101D600095ED000B87ED000B641C032CD6DB761C75
:101D7000072ED0DB9DED0C1B9DED040B53EC112BBE
:101D800051EC100B16F08AFD9DED0E1B9DED060B20
:101D900041EC180B53EC112B51EC100B16F07EFD9F
:101DA00053EC182B16F032FB0BD39DED0E1B9DED63
:101DB000060B53EC112B51EC100B16F06FFD41ECA0
:101DC000180B9DED101B9DED080B53EC112B51ECE6
:101DD000100B16F063FD53EC182B16F017FB0BD30A
:101DE0009DED101B9DED080B53EC112B51EC100BCE
:101DF00016F054FD41EC180B13B0B0EE480AF0EEAB
:101E0000680ABDEC028BBDE8F08F10B504462DEDDD
:101E1000068B9CB0002155200E91CDE90F1011903A
:101E20009FED3B8B0AA812F045F912A90AA812F0FF
:101E300076FD16AA0EA912A812F094FD6A460AA908
:101E400016A812F08FFD0198B2EE059A00F5967073
:101E500001900298B0EE490A00F59670029003983E
:101E600000F596700390FEF78BFBBDEEC00A01995A
:101E700010EE100AB0EE490A08440190FEF780FB0C
:101E8000BDEEC00A029810EE101AB0EE490A0844DE
:101E90000290FEF775FBBDEEC00A039910EE100A22
:101EA00008440390204601A9FEF77DFC94ED300B19
:101EB0009FED191B51EC100B53EC112B16F0E0FBAE
:101EC0005DD21AAA04A92046FEF73FFE60B39DED3D
:101ED000080B9FED138B51EC100B53EC182B16F0E5
:101EE000DDFC41EC100B53EC102B16F0CBFA41EC5F
:101EF000190B9DED060B53EC182B16E000000000AB
:101F0000000000000000803720380020003700204B
:101F10000000000000408F4000000000000034403E
:101F20000000000000C0724029E051EC100B16F0D8
:101F3000B5FC41EC100B53EC102B16F0A3FA9DED01
:101F4000040B41EC1A0B53EC182B51EC100B16F050
:101F5000A5FC41EC100B53EC102B16F093FA53EC4C
:101F60001A2B15F083FF53EC192B15F07FFF41EC72
:101F7000100B0EF083FFB0EE408AF0EE608A9FED0A
:101F8000FD0B51EC180B53EC102B16F023F81CB082
:101F900041EC100BBDEC068B10BD10B5E821F748E5
:101FA00003F0E8FFF648F74920F8BC1F4A0CC2804E
:101FB000C181828281834284F048E821E83003F0C5
:101FC000D9FFEF490020C1F8B40010BD2DE9F0435E
:101FD000EB4D04462DED108BC3B0006BC5F8A0018E
:101FE0002046FFF7DCFD00287ED1D5F8941105F1DD
:101FF000BC08012911D1B4F98C003D90B4F98E00D0
:102000003E90B4F990003F903DA9DC48FEF7CBFB31
:1020100004F18C01404600F0A4FB1FED48DB9FED6E
:10202000DABB9FEDDBCB9FEDDCAB9FEDDDEBD34E61
:10203000D5F80801E83E002802DD401EC5F8080179
:1020400096ED300B53EC1D2B51EC100B16F018FBDA
:102050007DD2CA49E822E839684603F0F2FEC74853
:102060003DA9E838FEF79FFBC44940AA20390F4636
:10207000A1F1C800FEF769FD00287BD0BF483946B2
:10208000E838FFF791F9B0EE408AF0EE608A95EDFE
:10209000400B51EC180B53EC102B16F0FFFB96ED98
:1020A000300B41EC190B53EC1B2B51EC100B16F0C1
:1020B000F5FB41EC100B51EC190B53EC102B15F008
:1020C00089FF41EC100B0EF0D9FE96ED30FBB0EE1F
:1020D000409AF0EE609A53EC1B2B51EC1F0B16F05C
:1020E000DDFB53EC1F2B00E0E9E016F0CBF941ECEF
:1020F0001F0B53EC1C2B51EC180B16F0C3F953ECCF
:102100001F2B15F067FF41EC100B0EF0B7FED5F852
:10211000E80016F0ADFC95ED381B53EC112B16F0D2
:10212000B1F953EC192B16F071F903D3D5F8080166
:10213000002826DD9148E8226946E83803F081FE50
:10214000D5F8E80016F094FC95ED381B01E010E09E
:1021500010E053EC112B16F095F953EC192B16F0F7
:1021600055F95CD24FF4FA7001F03CFE0A20C5F834
:10217000080154E08148E8226946E83803F061FE2E
:102180004DE0D5F89801012849D1D5F8B400401C9C
:10219000C5F8B400002013F057F896ED320B53EC5D
:1021A0001A2B51EC100B16F06DF916F0A7F83A90B7
:1021B00096ED340B53EC1A2B51EC100B16F062F920
:1021C00016F09CF83B9096ED360B53EC1A2B51EC25
:1021D000100B16F057F916F091F83C9003213AA82D
:1021E00012F096FF96ED300B53EC1E2B51EC100BBA
:1021F00016F046FA11D29FED6C0A6049E839F0EE0C
:10220000400A0846FEF7FFF95C483946E838FFF710
:10221000CBF8B0EE408AF0EE608A85ED408B208EE0
:10222000564FC0050CD5B4F87400C00508D507F1A9
:10223000E800FFF7EAFDB0EE408AF0EE608A01E0C8
:102240009FED4C8B97ED300B1FEDCD1B51EC100B20
:1022500053EC112B16F0DAF831D3484940AAC831B3
:1022600089464648FEF771FC00287CD0D4F8AC00C3
:1022700016F0A1F841EC100B53EC102B9FED4B0B1B
:1022800051EC100B15F0A6FE41EC1F0B4846FFF772
:1022900004FDB0EE409AF0EE609A53EC1F2B51EC27
:1022A000190B16F0EDF90BD29FED420B51EC180B08
:1022B00053EC102B16F0AAF802D2FFF76EFEDBE10A
:1022C00053EC1F2B51EC190B16F0A0F851D251EC26
:1022D000180B9FED3A9B53EC192B16F097F8F5D29B
:1022E00097ED300B9FED371B51EC100B53EC112B7E
:1022F00016F0C6F9EAD296ED300B53EC1D2B51ECDB
:10230000100B15F0BFFF7CD149461C48FFF74CF875
:10231000B0EE408AF0EE608A85ED408B97ED309B01
:1023200053EC1B2B51EC190B16F0B8FA53EC192B8C
:1023300016F0A8F841EC190B53EC1C2B51EC180BC0
:1023400016F0A0F853EC192B15F044FE41EC100BDD
:102350000EF094FDB0EE408AF0EE608AD5F8E80009
:1023600016F086FB00E088E195ED381B53EC112B4D
:102370002CE078E10000000000000840303500202B
:10238000003700200080FFFF000000000000F03F49
:102390000000000000000040000000000000F040CD
:1023A0000000000000409F406666E63E9A999999B9
:1023B0009999A941000000000000F83F00000000CA
:1023C000000010400000000000003E4016F05AF8E7
:1023D00053EC182B16F01AF8FFF46FAF9DED400B7D
:1023E00049464046FDF7C4FF02283FF466AF002887
:1023F0007ED1D5F898010128FAD1002012F024FFEF
:1024000000E02FE097ED320B53EC1A2B51EC100B40
:1024100016F038F815F072FF3A9097ED340B53EC44
:102420001A2B51EC100B16F02DF815F067FF3B90AE
:1024300097ED360B53EC1A2B51EC100B16F022F8DB
:1024400015F05CFF3C9003213AA812F061FE0120D8
:1024500012F08EFE1920009001900290684612F052
:102460007DFEF6E0D5F8B40015F0A5FF97ED301B22
:1024700053EC112B15F0AEFD9FEDE71B53EC112B28
:1024800016F0FEF8A8D34946E548FEF78DFF97ED14
:1024900030DBB0EE408AF0EE608A53EC1B2B51EC3F
:1024A0001D0B16F0FBF953EC1D2B15F0EBFF41EC67
:1024B0001B0B53EC1C2B51EC180B15F0E3FF53ECEA
:1024C0001B2B15F087FD41EC100B0EF0D7FCB0EE86
:1024D00040BAF0EE60BAD5F8E80016F0C9FA95ED0A
:1024E000381B53EC112B15F0CDFF53EC1B2B00E0E8
:1024F00087E015F08BFFC5D39DED400B4946404664
:10250000FDF736FF00287CD196ED361B97ED360B94
:1025100053EC112B51EC100B16F0C0F941EC100BE1
:1025200053EC102B15F0AEFF96ED341B97ED340BEA
:1025300041EC1B0B53EC112B51EC100B16F0AEF9C8
:1025400041EC100B53EC102B15F09CFF96ED321B59
:1025500097ED320B41EC1C0B53EC112B51EC100B93
:1025600016F09CF941EC100B53EC102B15F08AFF80
:1025700053EC1C2B15F07AFC53EC1B2B15F076FC5E
:1025800041EC100B0EF07AFCB0EE40BAF0EE60BAFF
:10259000D4F8AC0015F00FFF53EC1B2B15F072FFB5
:1025A0009FEDA01B53EC112B15F06CFF41EC1B0BA6
:1025B00053EC192B16F064F81AD39FED9C0B51ECD9
:1025C0001B0B53EC102B16F05BF8BFF476AED5F86E
:1025D000B40015F0F0FE97ED301B53EC112B15F005
:1025E000F9FC9FED941B53EC112B15F00FFFECD26F
:1025F000D5F8980101287FF460AE002012F024FE87
:1026000000E039E085ED408B97ED320B53EC1A2B4F
:1026100051EC100B15F036FF15F070FE3A9097ED67
:10262000340B53EC1A2B51EC100B15F02BFF15F05B
:1026300065FE3B9097ED360B53EC1A2B51EC100BCB
:1026400015F020FF15F05AFE3C9003213AA812F035
:102650005FFDF7EE000A9FED790A7149A1F1E800EC
:10266000FDF7D1FF29E697ED300B53EC1E2B51EC13
:10267000100B16F005F8F5D3002043B0BDEC108B1D
:10268000BDE8F08370B56E4C0546D4F80C0110B966
:10269000284600F091F8D5F8B01044F62060814249
:1026A0000ADAD4F8102111448142C4F810114FF015
:1026B000000005DBC4F810012846BDE8704085E441
:1026C00070BD04224FF4C871AFF2470012F088BB0E
:1026D000AFF24F0012F02CBF514810B5E821E83896
:1026E00003F048FCFFF759FC4FF4D471544803F051
:1026F00041FC534CB7EE000A04F5907084ED3A0AA1
:1027000002F095FD0A20C4F87001B2EE000A84EDD3
:10271000570A1E209FED4B0AC4F87C0184ED620A23
:102720009FED490A84ED610A9FED480A002084ED7F
:10273000630A10BD10B5FFF7CFFF002805D1AFF237
:102740007D00BDE8104012F00FBC10BD10B5AFF217
:10275000CB0012F0EDFEAFF29500BDE8104012F094
:1027600019BF30B50022C2EBC20331F9124030F973
:102770001350AC420ADD02EB42040D8820F82450CD
:1027800000EB84044D8865808D88A58000EB4303B1
:1027900031F91240B3F906309C4209DA02EB4203E8
:1027A00000EB83030C88DC804C881C818C885C8166
:1027B000521C032AD7DB30BD70B5214DD0F8AC20B8
:1027C0000446EAB1D3170020192103F0FEF845F8BA
:1027D000AC0F54F8AC2F0020D317052103F0F5F807
:1027E000686022680020D317962103F0EEF815F0F8
:1027F000E2FDC5E90D01AC3D0120C5F80C0170BD3D
:102800006FF00040C5F8AC009FED110BC5F8B000AB
:1028100085ED380BF0E700000AD7A3703D0AE73FCB
:1028200030350020000000000000103E00000000D5
:1028300000000440333333333333C33F0000000020
:1028400000370020CDCCCC3E3333333F9A99193F2B
:102850000000C0FFFFFFDF4110B5FF49C4074FF084
:1028600040434FF0804205D08B66CB66C1E91C32F5
:102870008A67CA67840709D5C1F80031C1F80431F5
:10288000C1E94232C1F81021C1F81421400709D52D
:10289000C1F89831C1F89C31C1E96832C1F8A8216A
:1028A000C1F8AC2110BD2DE9F14F002082B0824665
:1028B00081460298806F00287ED000220020401CB4
:1028C0000428FCDB029800EBC203D3E90010A1FB53
:1028D0000167D3E9065400FB017701FB0077AB46A3
:1028E000AD1BCDE900670326A5FB06C8A64664EB31
:1028F000070404FB0684002705FB0745DDE90067A4
:102900001CEB06047D41A4FB016705FB017504FB7C
:102910000055D3E90C47341B65EB0705CDE90045AD
:102920005D46A5FB05670324A6FB04580EFB0B7749
:102930000BFB0E7707FB04844FF0000C06FB0C44E6
:10294000D3E91263761B63EB04034C18A4FB017CF0
:1029500040EB000505FB01C504FB0055A7FB014C3E
:1029600005FB01C507FB0055A4FB017C05FB01C568
:1029700004FB0054F6196341DDE90045AD0045EA6A
:102980009475A400A4FB017C05FB01C104FB0014A9
:10299000F01B73EB040103D50023404263EB0101FC
:1029A000BAEB000479EB010301DA82468946521C36
:1029B000032A83DB504600E016E0494616F086F80D
:1029C00000EE900AA54890ED0E1A80EE810A10EEF6
:1029D000100A16F0F9F8A04AD2F80C2203B09200BF
:1029E000BDE8F04F02F0DEBF002003B00146BDE8B5
:1029F000F08F2DE9F14F0020009A0146926FE2B36B
:102A000000240022521C042AFCDB009A02EBC405BD
:102A1000AA46D5E90029A2FB023CD5E906769E46E6
:102A2000FB1A0325A3FB057809FB02CC02FB09CBAB
:102A300066EB0B0606FB05854FF0000C03FB0C56FE
:102A400017EB0E03A3FB027C46EB0B0606FB02C250
:102A500003FB0923DAE90C25BA1AAB4103D500259B
:102A6000524265EB0303851A71EB030501DA104648
:102A70001946641C032CC4DB00E015E016F026F8B0
:102A800000EE900A754890ED0E1A80EE810A10EE65
:102A9000100A16F099F8704AD2F80C22BDE8F84FE7
:102AA00002EB420202F07EBF00200146BDE8F88F33
:102AB0002DE9FE43684D80460024D5F810626F462C
:102AC00005EBC4013246D1E9020102F058FF05EBE3
:102AD0008401B1F884100904401847F8240004F177
:102AE0000104032CECDB5C489821083003F042FA27
:102AF0000120FFF7B1FE95F8E8010199042807D1FC
:102B0000D5F81802B0F5201F02DD052085F8E80190
:102B1000524C0098636AC11A01D40E4600E01E1A96
:102B20000198A26A801A01D4074601E0019FD71BD1
:102B3000BE4206DD002901D4084606E00098181AB6
:102B400003E0002801D50198101A029AE16A521A8E
:102B500001D4134601E0029BCB1A834205DB002A15
:102B600001D4104601E00298081AD8F8241011F098
:102B70008EFED5F81812814206DD0321684612F058
:102B8000F9FB022012F05EFC009860620198A062DE
:102B90000298E062BDE8FE83304AC2E90201704754
:102BA0002E4AC2E9060170472C4AC2E90401704767
:102BB000294AD2F8E0310360D2E97402C1E9000287
:102BC0007047254AD2F8E0310360D2E97602C1E9C4
:102BD000000270472DE9FE4781460020EA468A6FD1
:102BE00022B901EB800339F91020DA6701EB80028A
:102BF00039F91030D46F1D1B4AF82050136E9D42D6
:102C000000DD1566D36E9D4200DAD56601230024EF
:102C100022464FEAE578A3FB056704FB057403FB36
:102C20000844334602EB420601EBC60606EBC00C35
:102C3000DCE90076FF186641CCE90076521C042AD4
:102C4000E9DB401C0328CADB886F401C8867012031
:102C5000C1F89000BDE8FE87A8380020083B00209E
:102C600030B5002302EB830550F823405B1CEC6673
:102C7000032BF7DBC2F88810916F79B1002102EBCA
:102C8000810450F82130E56F5B1B00D55B42256E57
:102C90009D4200DA2366491C0329F0DB906F401C3B
:102CA00090670120C2F8900030BD10B500210B469E
:102CB00000EB8102491CD46ED46713660329F7DB4D
:102CC000D0F8881040F8783FC0E9051310BDD0E96E
:102CD0002210081A70470146D1E91802824200DB2F
:102CE0001046896E814200DB084670472DE9F047A7
:102CF0008046501E012686408946C2F12007404684
:102D000002F050FE04460D46404649463A4602F05F
:102D100036FE3A4602F046FEB04203DD641C45F141
:102D2000000505E07142884202DA641E45F1FF3574
:102D300020462946BDE8F087F7490020086248622E
:102D40008862C862086448648864C8640863486329
:102D50008863C863086548658865C865704730B58D
:102D6000EE4AD2F8483223B1D2E990542D1A8C4160
:102D700001DAC2E990015B1CC2F8483230BD30B5BF
:102D8000E64AD2F8583223B1D2E994542D1A8C4134
:102D900001DAC2E994015B1CC2F8583230BD30B58B
:102DA000DE4AD2F828322BB1D2E98845041B71EBF8
:102DB000050401DAC2E988015B1CC2F8283230BD83
:102DC00030B5D64AD2F838322BB1D2E98C45041B43
:102DD00071EB050401DAC2E98C015B1CC2F83832E0
:102DE00030BD2DE9F0470246CC4801250830804629
:102DF000C36E016E046FC91A436E1B1B8B4200DB4E
:102E00001946836ED8F87400181A884200DB014610
:102E1000C14F6037F86B884204DA002400F010FAE2
:102E2000204687E7108E0124BC4EC0054FF00001FC
:102E30000ED5D6F880303068834209DBB2F87420B2
:102E4000D20506D5D6F8B021824201DB052400E088
:102E50000C4674B3600719D5AF48C8388146FFF7F0
:102E600022FD000D40EA01300915C6E97601D7E9D7
:102E700004321B1A8A4102DA0025FFF7A1FF9821CC
:102E8000484603F077F80420FFF7E6FCE0070ED091
:102E90004046FFF708FDC6E97C01D7E90634024643
:102EA000181A8C4103DA00251046FFF778FF2846F0
:102EB00040E7FFE702203DE71EB5044690F83000EA
:102EC000C0F38110032804D19449201D0831FFF775
:102ED00081FE94F87400C0F38110032805D18E4957
:102EE00004F14800C839FFF775FED4F8B8008B4AE2
:102EF000C0F38113A0326946032B0FD0C0F34110F9
:102F000003281AD1002004EB8003D3F8A0309B13D0
:102F100041F82030401C0328F5DB09E0002004EBD9
:102F20004003B3F98C3041F82030401C0328F6DB15
:102F30006846D4F8C010FFF793FE1EBD2DE9F04798
:102F400005460020296BCA056AD501F050014029C9
:102F500000D1012095F8741001F05001402900D1F2
:102F6000012095F8B8106D4C01F05001402900D0B7
:102F700030B100F065F90020C4F8E00184F8E80100
:102F8000654ED4F80812E86A6036814228D0C4F849
:102F900008020A28306B0CDA40002060716B00EEEA
:102FA000100A491CC4F80C12B8EEC00A0DF0A3FFB9
:102FB00005E02060706BC4F80C0296ED0E0A84EDFB
:102FC000850AD4F80C02C0F11000C4F810024FF4C6
:102FD0008040C4F8180296F8341019208840F06335
:102FE0002846FFF769FF94F8E811DFF830910527CC
:102FF0004FF0020809F1A009072911D2DFE801F01A
:10300000041127305E7E8500D4F8E001411CC4F82D
:10301000E0110A2804DB00F013F9012084F8E8012C
:1030200086E0D4F89800012810D12846FFF7D9FE91
:1030300010B1012803D004E084F8E87101E084F8BD
:10304000E8814846FFF731FEFFF776FE70E0032087
:1030500084F8E8012846FFF72BFD00F0F1F867E05F
:103060002846FFF7BEFEE8B3012861D1B5F8B800E5
:103070004FF00403C00515D54846FFF72CFE014666
:10308000C017C4E97410D6E902C2BCEB0101824149
:1030900002DA84F8E87108E04846FFF718FE316A62
:1030A000884202D384F8E83124E0F4E97601FFF79E
:1030B00066FED4E90601FFF752FE39E0B5F8B80024
:1030C000C0050BD54846FFF706FE0146C017C4E908
:1030D0007410D6E90232591A824108DB2846FFF7FC
:1030E00080FE00E003E010B1012803D020E084F866
:1030F000E8711DE02846FFF7DBFCD6E7062084F8E0
:10310000E801012012F09EF90DE02846FFF769FE64
:10311000012805D038B10BE0A83A0020A8380020DB
:1031200084F8E88104E000F08BF84846FFF7BDFD25
:103130000020FFE510B500214010002802D001F169
:103140000101F9DC4FF0010001F1010100FA01F089
:10315000434C00EE100AC4E90C01B8EEC00A0DF0B1
:10316000CAFE84ED0E0A94F8341019208840E063FA
:1031700010BD10B54FF418713A4802F0FBFE402123
:10318000374802F0F7FE0720FFF766FB344840F2AD
:10319000DC510022C0E906121421C0E902124FF4EA
:1031A0001671C0E9041230492E4C01620120C4F8A6
:1031B000E4011920FFF7BEFF0020C4F8080210BD8B
:1031C00010B54FF41871274802F0D4FE0720FFF71E
:1031D00043FB244801210022C0F8E41180F8E811E3
:1031E0000321012012F020F907226421AFF2B3205D
:1031F000BDE8104011F0F4BD10B5012012F022F925
:10320000AFF2C720BDE8104012F092B910B5FFF739
:10321000B0FF002805D1AFF25700BDE8104011F013
:10322000A3BE10BD10B5FFF7E7FFAFF26B00BDE81E
:10323000104012F0AFB90B49D1E97C0170477047DB
:10324000084810B59821083002F094FE98210748EC
:1032500002F090FEBDE810400520FFF7FDBA000027
:10326000083B0020A83800200008AF2FE0390020DC
:10327000F0B516462DED028B85B01F460C4605466F
:103280003C22FE49A1F10C0002F00DFEFB49502248
:103290004C31A1F1100002F006FEF84996E80D004D
:1032A0000C3901F13C0C8CE80D005CCC01F198006C
:1032B00080E85C009FEDF28AD1F82401401CC1F83F
:1032C0002401062802DD0620C1F82401C0F106060B
:1032D0000C46A0351AE004EB06116A463846483120
:1032E00011F040FB06EB460004EB80016A462846DD
:1032F00010F00EFDF0EEC00AB0EEC81AF4EEC10AEE
:10330000F1EE10FA01D2B0EE408A761C062EE2DB16
:1033100005B0B0EE480ABDEC028BF0BD70B51446A6
:103320002DED048B0E46B0EE408A00259FEDD59A18
:10333000416BF0EE498A002904DBD0F8BC00032879
:1033400000D10125CD492422B431081F02F0ABFD84
:10335000CA480C38002380ED388A00EB83015B1CDF
:1033600091ED2F0A0A2B70EE288AF6DBB2EE040AE2
:10337000C822C8EE800AC0ED390A9FEDC31A322E6A
:103380001DDB9FEDC20AC0F81C21B6F57A7FC8EE9E
:10339000001A00EE104AB8EEC00A61EE801A81EE03
:1033A000810A2FDB9FEDBA0AC8EE001A00EE104A20
:1033B000B8EEC00A61EE801A81EE810A22E041F285
:1033C000883194FBF1F14942D0F81C3101EB8101C5
:1033D000C918C0F81C1102D50021C0F81C119FEDBE
:1033E000AD0AC8EE001A00EE104AB8EEC00A61EE4F
:1033F000801A81EE810A29B9D0F82811012901D15A
:10340000B0EE490AD0F8201109B1B0EE480AA2493D
:103410008C4201D1B0EE480AB5EEC00AF1EE10FAC6
:1034200001D0C0ED3A0A90ED3A1A9C4B71EE600A59
:10343000F0EEE00A10EE901A994227DDD0ED2E0A48
:10344000F5EEC00AF1EE10FA20D1002D1ED0C0F822
:103450001C21204614F0AFFF41EC190B18EE100AA6
:1034600015F006FB9FED8E1B53EC112B14F0B2FDF3
:1034700053EC192B15F006F89FED8B1B53EC112B19
:1034800014F0A8FD14F0C0FC00EE100ABDEC048B93
:1034900070BD2DE9F04F04462DED048BA9B09FEDD2
:1034A000799A4FF0000A754ECDF810A00C3ECDF879
:1034B00014A0CDF818A0D6F82011022003297DD041
:1034C00000209FED7B8A20AD06EB800191ED2A0A5A
:1034D00005EB8001401CB8EEC00A042820EE080A63
:1034E00081ED000AF0DB0FA810F0E4FD24A810F035
:1034F0004BFE624B24AA9C330FA920462793FFF76B
:10350000B7FEF0EE408A04F1180010F0A5FE810924
:103510006148D6F83021824200DB0246B0EE680AEC
:103520002046FFF7FBFED6ED3B0AB3460BA820EE84
:10353000200A86ED2E0A10F0BDFD13A90BA811F08C
:10354000E2FB4E480FAAF0300BA9064611F00AFA2A
:1035500031460BA811F0E3F900210DF13C080DF103
:103560004C090DF1100E00221346104601EB410CE0
:103570000CEB000759F8276008EB8007401C7F68B8
:103580000328C6FB0723F3DB900F40EA83004EF8C5
:103590002100491C0329E6DBDBF820015E460028F8
:1035A0006AD05046CDF818A0404200EE100AB8EE9E
:1035B000C00A20EE080A0DF003F900E0A2E08DED4C
:1035C000000A8DED019A8DED029A0698404200EEB8
:1035D000100AB8EEC00A20EE080A0DF087FB8DED48
:1035E000030A9DED060ADFED330AD6F83001B8EE86
:1035F000C00A41F2883190FBF1F080EE201A00EE13
:10360000100AF8EEC01A81EE210AB0EE001AC0EEE0
:10361000011ABDEEE10A10EE101A490000EE101A70
:103620000691B8EEC00A60EE200A00EE100AB8EE6D
:10363000C00A20EE800ABDEEC00A8DED060AB8EE83
:10364000C00A20EE080A0DF0BBF88DED070A8DEDDB
:10365000089A8DED099A9DED060AB8EEC00A20EE93
:10366000080A0DF043FB8DED0A0A1CAA694620A842
:1036700011F0D1F96A461FE04BE00000543B0020F6
:10368000002474490000000000409C4500004843AD
:10369000000048420000C84340420F000E2DB23DDA
:1036A0000000000000007940000000000088B340E6
:1036B00000008030E102374707A91CA811F0ABF9E0
:1036C0006F46DFED958AD4F8BC00002813DD00209A
:1036D00007EB800191ED000A05EB800181ED000A06
:1036E00020EE280A06EB8001401C0428BDEEC00A2B
:1036F00081ED2A0AECDBD4F8BC00F6EE009A032830
:103700000CD108E0C6F8200129B0BDEC048BBDE85F
:10371000F08F069848E700F03DFEE0B396ED2A0AE8
:10372000B8EEC00A20EE080A8DED1C0A96ED2B0AB1
:10373000B8EEC00A20EE080A8DED1D0A96ED2C0A9F
:10374000B8EEC00A20EE080A8DED1E0A96ED2D0A8D
:10375000B8EEC00A20EE080A8DED1F0AD6F8200147
:103760000028D1D096ED2E0A20EE290A0DF028F877
:1037700020EE280ABDEEC00A86ED2A0AC6F8ACA0E3
:10378000C6F8B0A096ED2E0A20EE290A0DF0AEFA8A
:1037900020EE280A00E004E0BDEEC00A86ED2D0A06
:1037A0002BE096ED2E0A20EE290A0DF009F88DED9A
:1037B000070A8DED089A8DED099A96ED2E0A20EEF6
:1037C000290A0DF093FA8DED0A0A6A4607A920A886
:1037D00011F021F9684611F0DBF9002007EB8001B8
:1037E00091ED000A06EB8001401C20EE280A042817
:1037F000BDEEC00A81ED2A0AF0DBD4F8C01027988C
:1038000011F0BCFCD6F820010028AAD0401E79E7B0
:1038100070B590F8B810414ACC064FF000034FF055
:10382000030101D4C2E94813B0F82041E40509D4EA
:10383000048EE40503D5B0F87440E40502D4C2E96F
:1038400048131AE0D2F8341139B1D0E93013C91A4B
:103850004FF47A73B1FBF3F105E0D0F8B01044F601
:103860002064A14202DBC2F830110AE0D2F82C51E8
:103870002944C2F82C11A14201DA002070BDC2E92E
:103880004B31FFF706FEF8E710B54FF49C71234863
:1038900002F070FB214C4FF080400021C4F8FC0086
:1038A00044F8A80F1D48A83011F068FC4FF47A7056
:1038B000B7EE000A606784ED110A10BD174880ED6D
:1038C0003B0A002070471549C1F8280100207047C5
:1038D0001249C1F834010020704704224FF41671D8
:1038E000AFF2D30011F07CBAAFF2DB0011F020BED2
:1038F00010B5FFF7C9FF09490020C1F82801C1F838
:103900003401AFF22900BDE8104011F02DBBAFF239
:10391000350011F03FBE00000000804E483B002003
:103920001FB501461022684602F046FAF7489DE8A6
:103930000E0080E80E00F6499DF80C0081F8B001F9
:10394000002004B010BD1FB5F0490EC98DE80E006F
:10395000EF49102291F8B0118DF80C10694602F071
:103960002BFA0020EDE72DE9F04F91B0002518214A
:10397000684602F0FFFA0024182106A802F0FAFABD
:10398000E348A046C14690F8C01101297ED1D0F885
:10399000B8B1D0F8B4A10022C2EBC20000EB4001E4
:1039A000DB4800EB810E9EF850000F90002864D099
:1039B00000215FE0DDE900076D1C5EF821300E9309
:1039C000181847EBE376CDE900060EEB8100EDB267
:1039D00043690D93DDE9027C4FEAE376DB1946EBA0
:1039E0000C06CDE90236836ADDE9047CDE170C9310
:1039F000DB1946EB0C06CDE90436C06B0E9BDDE906
:103A0000067C83FB0063360C46EA0346F6194CEB52
:103A10002343CDE906630D9BDDE9087C83FB00634E
:103A20004FEA164646EA0346F6194CEB2343CDE926
:103A300008630C9BDDE90A7C83FB00634FEA1646B2
:103A400046EA0346F6194CEB2343CDE90A6380FBB3
:103A500000634FEA164646EA034616EB080849EBB0
:103A600023490444584501DA834602E0504500DD0D
:103A70008246491C0F9888429CDC521C052A8BDB2D
:103A8000A348AAEB0B01D0F8BC0100E056E081424C
:103A900054DBA5FB0823E0170026109006FB083036
:103AA00005FB0900CDE90C2084FB0420110C41EA40
:103AB00000410014CDE90E0106A800EBC601D1E9D2
:103AC0000003A0FB05B203FB0522002100FB012C33
:103AD000684600EBC601D1E90001A0FB043701FBF9
:103AE0000471109A00FB0210190C41EA00490CAA5B
:103AF0004FEA204A92E889000F9983EA070880EA92
:103B0000010252EA080212D0421A63EB0703BBEB30
:103B100009006CEB0A0C4FEA0C4141EA1041000429
:103B200001F053FF7A4901EB8601C1F8A401761C2C
:103B3000032EC1DB7648012180F8B01111B00020BE
:103B4000BDE8F08FF8B5724D0E460446D5E96D011B
:103B5000091A052291FBF2F1301A90FBF1F0C0B284
:103B60008DF80000042801D92020F8BDC0EBC0006A
:103B700000EB400005EB800191F85000052816D0BD
:103B8000421C81F850209DF80010C1EBC10101EBEF
:103B9000410105EB810202EB8001CE63236842F80C
:103BA000203060684861A06888620020F8BD01F19B
:103BB0004003181F1022194602F075F99DF8000005
:103BC0001022C0EBC00000EB400005EB8000011D9F
:103BD00002F069F99DF800001022C0EBC00000EB74
:103BE000400005EB800000F11801143002F05BF991
:103BF0009DF800001022C0EBC00000EB400005EB78
:103C0000800000F12C01283002F04DF90420BAE7C1
:103C100030B585B0044603A9684610F0F3FA04A84D
:103C200010F0B8FB02282BD0D4F8E4000399401A16
:103C3000374991F8B02112B308B3D1F8A421009C00
:103C400080FB0232150445EA134222440092D1F867
:103C5000A821019C80FB0232150445EA134222444C
:103C60000192D1F8AC11029A80FB0110030443EADF
:103C70001140104402900321684611F07BFB0CE0D8
:103C8000606B032809D110F0CFFA30B16846039970
:103C9000FFF758FF08B9FFF766FE05B0002030BDFA
:103CA00010B54FF4E2711A4802F064F91848194946
:103CB000C0F8B4114FF4AA01C0F8B8114FF4A02114
:103CC000C0F8BC11012180F8C011002010BD1049BE
:103CD000C1F8B801002070470D49C1F8B4010020B7
:103CE00070470B49C1F8BC010020704758B1084922
:103CF000D1F8A4210260D1F8A8214260D1F8AC111A
:103D0000816000207047052070470000243E00209D
:103D1000803C00200000D8FF2420F5E720B12D4989
:103D200081F8C0010020EFE72420EDE7294B93F84C
:103D3000B1010028E8D0D3E96D10401A052190FBAD
:103D4000F1F00020C0EBC00101EB410103EB810168
:103D500091F8502022B1002100E0491C8A42FCDC8D
:103D6000401C0528EEDB0020CEE7082296211A48E9
:103D700011F036B8184811F0DBBB10B5FFF790FF13
:103D80004FF49A7310221549154811F0A5F820B97F
:103D9000AFF2290011F0E8F808B1012010BD0D497B
:103DA000012081F8B101002010BD10B5094C94F834
:103DB000B101002808D0084811F0BAFBAFF2550055
:103DC00011F0E8FB08B1012010BD002084F8B1011A
:103DD00010BD0000803C0020113C0008473900085D
:103DE00021390008002803DDFE490122C1E9200233
:103DF0000020704710B5B821FA4802F0BBF89FEDDB
:103E0000FA0AF84880ED030A9FEDF80A80ED020AED
:103E10009FEDF70A4FF0804180ED000AB3EE0E0AE5
:103E200080ED010A41664FF4FA619FEDF20AC16725
:103E300080ED270A002010BD70B5EA4C002594EDF6
:103E4000001AB4EEC01AF1EE10FA17D394ED011A6D
:103E5000B4EEC01AF1EE10FA10DC2069012817D177
:103E600094ED030AB4EEE00AF1EE10FA06D394EDF5
:103E7000020AB4EEE00AF1EE10FA09DD606F20B933
:103E8000D848A16D183011F079F90120C4E91D0559
:103E9000D4E91E01884204DB606F012800D1E5658A
:103EA000656770BD10B504462DED028BB0EE408AFB
:103EB00010F00CF9CB49002220B918EE100ACE4BB5
:103EC000984202DD0A614A6102E00869002808D1CF
:103ED000486920444861B0F5FA7F02DD0120C1E95C
:103EE0000402BDEC028B10BDF0B58DB00D4614463A
:103EF0000646694610F007FF09AA3146284610F029
:103F000031FD2946304610F00AFD0021EC460DF146
:103F1000240E00231A46184601EB41073D180EEB0C
:103F200080065CF825507668401CC5FB06320328E5
:103F3000F4DB980F40EA820044F82100491C032971
:103F4000E7DB0DB0F0BDA7490020C1F88C00704739
:103F500010B590ED000AD0ED010AB8EEC00AB8EE37
:103F6000E01AF8EEE00A20EE000A01EE200AD0ED99
:103F7000020AB8EEE01AF8EEE00A01EE200A0CF0B0
:103F8000BAFFDFED9E0A20EE200A10BD00229549FF
:103F9000012330B1012810D0C1F8983041F88C2F9E
:103FA00031E081ED280A81ED290A9FED950A81ED26
:103FB0002A0AE1E924328A607047D1ED280A91ED9E
:103FC000271A70EE600AF0EEE00AF4EEC10AF1EE94
:103FD00010FA16D2D1F89400401CC1F89400D1ED2B
:103FE000290A312830EE800A81ED290AE4DD022019
:103FF000DFED840AC1F8900080EE201A81ED2A1AC4
:10400000704741F8902F4A6070472DE9F047984675
:104010002DED088B8AB017468A4604469FED788AB4
:104020000025704E039504950595D6F88800002864
:104030007DD010F009F910B103A810F0D5F8D6F82A
:1040400080004FF00109002817DDC6F8849010F0B9
:10405000FBF848B103A810F0FFF88009B0F5C87F5D
:1040600002D2D6F8800004E0D6F88000001BC6F823
:104070008000002801DCC6F8845010F041FB0028C5
:1040800055D000209FED5D9A57F8201000EE101AD1
:1040900058F82010401CB8EEC00A032860EE090A48
:1040A00000EE101AB8EEC00A20EE800A00EE098A6F
:1040B000EADB3846FFF74CFFF0EE408A4FF07E57C0
:1040C00088EE280AF7EE00AA10EE100AB84201DDC9
:1040D000B0EE6A0A10EE100ADFF82C81BFEE00BACB
:1040E000404501D9B0EE4B0A0CF050F9D6F88C00DF
:1040F000B0EE40AA98B196ED000AB4EEE80AF1EEEF
:1041000010FA0CDD96ED010AB4EEE80AF1EE10FAB1
:1041100005D2B0EE4A0AD6F89000FFF737FF68469E
:1041200010F022F92F490C22AC31684600E0E2E0A1
:1041300001F016FE18B9D6F8980001286BD129486D
:104140009DE80E00AC3080E80E00009818B9019888
:1041500008B90298F0B36846FFF7FAFEB0EE408A5D
:10416000B5EEC08AF1EE10FA55D0F2EE049A38EEB0
:10417000690A20EE000A0CF0BEFE86ED010A38EE58
:10418000290A20EE000A0CF0B6FE86ED000A9DED2D
:10419000020AB8EEC00A60EE090AB0EE480A80EEE4
:1041A000808A18EE100AB84201DDB0EE6A8A18EE75
:1041B000100A404501D9B0EE4B8AB0EE480A0CF027
:1041C000E5F8D6ED270A30EE600A86ED020AB0EE79
:1041D000480A00E024E00CF0D9F8D6ED270A30EECA
:1041E000200A14E0443E00200000B4420000B4C2A3
:1041F000000070427B142E3E00401C4600008037B9
:104200000000000000004842000080BF03E086ED8F
:10421000030AC6F88C50DFF88481F16D21B32FE0DA
:104220001FED0D0A86ED000AB3EE0E0A86ED010AB7
:10423000D6F89800012808D01FED140A86ED020A6E
:104240001FED170A86ED030AE5E796ED2A0A96EDBB
:10425000271A70EE410A30EE010AC6ED020A86ED19
:10426000030AC6F89850D6E70027C6F85C9006EB1C
:104270000710414618300FF05FFF7F1C042FF6DB5C
:10428000464906AA0C310F465046FFF72DFE394627
:10429000504610F044FB03A80FF0DEFF00EE100ABA
:1042A000DFED3F0A2046B8EE400A20EE200AFFF775
:1042B000F9FDF0EE4A0AB0EE680AFFF7BDFDD6E957
:1042C0001E01884201DA2044B067706F90B9306EE9
:1042D00020443066B0F57A7F0CDD30493022303929
:1042E000A1F11000356601F0DEFD2C484146103882
:1042F0000FF022FF706F0AB0BDEC088BBDE8F087AD
:1043000070B588B0044604A80FF03EFFD4E9300130
:10431000451A68460FF0CEFE064604AB04F1A00233
:1043200069462846FFF771FE10F03AFF08B03046A4
:1043300070BD04224FF49671AFF23B0010F050BDF7
:10434000AFF2430011F0F4B810B5FFF753FD0028A9
:104350000DD1124800215838C0F88C100121C0F846
:104360008810AFF23100BDE8104010F0FDBD10BD67
:1043700010B5AFF2730011F0DBF8AFF27B00BDE8CF
:10438000104011F0D5B8054901205839C1F88C000A
:104390000020704701485838406F70479C3E00200D
:1043A0000000803CF0B51D462DED028B99B090EDDC
:1043B000000AD0ED010A1746B8EEC00AB8EEE01ABE
:1043C000F8EEE00A0E4620EE000A044601EE200A4E
:1043D000D0ED020AB8EEE01AF8EEE00A01EE200A8B
:1043E0000CF089FDF0EEC00A10EE900AB0F18D4F8E
:1043F0007EDDD6ED000AB8EEE01ADFEDFE0A21EE12
:10440000201A8DED041A96ED011AB8EEC11A21EEAC
:10441000201A8DED051A96ED021AB8EEC11A21EE9A
:10442000201A8DED061A96ED031AB8EEC11A61EE48
:10443000200ACDED070A9FEDF08A10AA8DED0C8AB7
:10444000D4ED000A0CA904A8F8EEE00A80EE801A68
:104450008DED0D1AD4ED010AF8EEE00A80EE801A17
:104460008DED0E1AD4ED020AF8EEE00A80EE801A05
:104470008DED0F1A10F0CFFA14A904A810F05BFA12
:104480006A4614A910A810F0C6FA9DED021ADDEDD7
:10449000010ADA4921EE010A00EEA00A10EE100A24
:1044A000884202DA9FEDD60A11E010EE100AD549D3
:1044B000884202DA9FEDD40A09E010EE100AD349CF
:1044C000884202DAB5EE000A01E09FEDD10A01EE62
:1044D000907AB8EEE12ADFEDCF2A8DED088AC2EEA0
:1044E000221A21EE800A21EE001A8DED091A00E051
:1044F00038E020EEC00A6A4604A98DED0A0A8DED67
:104500000B8A08A810F087FA6A4604A9104610F032
:10451000E5F9684610F0E8FADDED000A9FEDBE0A05
:1045200060EE800AFDEEE00AC5ED000ADDED010A4D
:1045300060EE800AFDEEE00AC5ED010ADDED020A3B
:1045400060EE800AFDEEE00AC5ED020ADDED030A29
:1045500020EE800ABDEEC00A85ED030A19B0BDEC5D
:10456000028BF0BD96E80F0085E80F00F6E72DE915
:10457000F0410C462DED068B054690ED000AD0ED7E
:10458000010AB8EEC00AB8EEE01AF8EEE00A20EE32
:10459000000A01EE200AD0ED020AB8EEE01AF8EEA9
:1045A000E00A01EE200A0CF0A6FC10EE100A4FF013
:1045B0007E5800264FF0804740453FDDD5ED020A8A
:1045C000B7EE009AF8EEE00AC0EE808A39EE680A8B
:1045D0009FED89AAB5EEC00AF1EE10FA01DCB0EE4B
:1045E0004A0AF6EE009A20EE290A0CF084FCB0EE9E
:1045F000408A38EE890AB5EEC00AF1EE10FA01DC05
:10460000B0EE4A0A20EE290A0CF075FCF0EE408A62
:1046100095ED000AB8EEC00A60EE000A95ED010AB9
:10462000B8EEC01AB8EEC00A41EE000AB0EE600A59
:104630000CF061FC10EE100A404503DCC4E9007682
:10464000A66025E0DFED740A28EEA01ABDEEC11ABF
:1046500084ED001A95ED011AF8EEC11A81EE801A68
:1046600021EE081A61EE200AFDEEE00AC4ED010A0F
:10467000D5ED000AF8EEE00A80EE801A21EE080A75
:10468000DFED660A20EE200ABDEEC00A84ED020AC4
:10469000E660BDEC068BBDE8F08170B590ED000AD8
:1046A000D0ED010A0546B8EEC00AB8EEE01AF8EE01
:1046B000E00A0C4620EE000A01EE200AD0ED020AC4
:1046C000B8EEE01AF8EEE00A01EE200AD0ED030A97
:1046D000B8EEE01AF8EEE00A01EE200AB5EEC00AE4
:1046E000F1EE10FA07D84FF08040206000206060A3
:1046F000A060C86070BD0CF0FEFBB7EE001AC1EE02
:10470000000A9FED450A20EE800AD5ED000AF8EE7A
:10471000E00A60EE800AFDEEE00AC4ED000AD5ED85
:10472000010AF8EEE00A60EE800AFDEEE00AC4ED50
:10473000010AD5ED020AF8EEE00A60EE800AFDEE0D
:10474000E00AC4ED020AD5ED030AF8EEE00A20EE15
:10475000800ABDEEC00A84ED030A70BD70B5044640
:1047600090F8300088B040067ED5A069002801DBB3
:10477000014600E041424FF480320026284D91422C
:104780000BDAE169002900DA4942914205DA216A2F
:10479000002900DA4942914267DB002800DA4042F2
:1047A0004FF4C80188420BDCE069002800DA40427F
:1047B000884205DC206A002800DA4042884201DD98
:1047C000032000E00220A863696BA06A814242D006
:1047D000686394ED0A0A9FED131AF8EEC00A80EEA2
:1047E000810ADFED110A20EE200A10EE100A14F003
:1047F0003FF91BE0000080300000000017B751397E
:10480000A69BC43B0AD7233C8FC2753DCDCC4C3E02
:10481000CDCCCC3E0014CD470000804E000080CEB1
:10482000FC3E0020002474490000004E9FEDFA1B5E
:1048300053EC112B13F026FE9FEDF91B53EC112BBB
:1048400013F020FE9FEDF81B53EC112B13F0C2FB6D
:1048500013F054FD28630496296BA06910F017F833
:104860000590296BE06901E022E023E010F00FF8E9
:104870000690296B206A10F00AF807906A4604A98E
:10488000EB4810F06FF80098E94A80010090019819
:10489000694680010190029880010290039880018E
:1048A0000390104610F008F8E1490846FFF7F5FEBE
:1048B00008B070BDAE63FBE770B504462DED048B08
:1048C0008EB0D0F82001410676D5D94DD4F810111C
:1048D000D84B2A68891AD4F82C215A438A4201DA23
:1048E000032100E00221A963800504F5887602D542
:1048F000CF493046B5E0002107A80FF083FCCC4932
:104900000C223C3107A801F02BFA20B9D4F8280179
:10491000A96D88427ED020886B4680B207AA616A62
:104920000FF04EFA9DED000ADDED010AB8EEC00A67
:10493000B8EEE01AF8EEE00A20EE000A01EE200AD6
:10494000DDED020AB8EEE01AF8EEE00A01EE200A08
:104950000CF0D1FAB0EE408A9FEDB70A68EE000A7B
:104960009FEDB61A80EE810ADFEDB50A20EE200A2F
:10497000D4ED4A0AF8EEE00A60EE800A1FED571AFD
:1049800080EE810AF6EE000A20EE209AB0EE490A87
:104990000BF016FFF0EE408AB0EE490A0CF0A6F9D3
:1049A00018EE100A4FF08041884206DA0020C5E96F
:1049B00012102865686532E055E05FED690A68EE1F
:1049C000A00AFDEEE00AC5ED120A5FED6C0A20EECA
:1049D000200ADDED000AF8EEE00A60EE200A80EE23
:1049E000881AFDEEC10AC5ED130ADDED010AF8EEE5
:1049F000E00A60EE200A80EE881AFDEEC10AC5EDDD
:104A0000140ADDED020AF8EEE00A20EE200AC0EEFC
:104A1000080A00E00DE0BDEEE00A85ED150A07ABDF
:104A200093E8070005F13C0383E80700D4F8280168
:104A3000A8657F4903AA483130460FF093FF7C48B0
:104A40000AAA5C3003A904460FF08CFF21463046C9
:104A50000FF065FF03AA0AA975480FF083FF744998
:104A600003A8FFF71AFE0EB0BDEC048B70BD1FB596
:104A7000044669466E480FF052FF6D4A694620327F
:104A800020460FF06FFF6A491DCC103181E81D00F0
:104A90001FBD2DE9F0470446654E90F8740006F1FD
:104AA0005C0A06F12008012500F05001103692B092
:104AB00004F5887904F15C07402906D094F82001B8
:104AC00000F0500040280DD01DE031463846FFF779
:104AD0004EFDB4F82001C0050CD5514648460FF0F4
:104AE0001EFF07E0514648460FF019FFB4F8740066
:104AF000C00508D569464E480FF011FF4246694689
:104B000030460FF02FFFB4F82001C005204602D533
:104B1000FFF7D2FE01E0FFF721FE3246444940464E
:104B20000FF020FF94F8740040066FD5208EB4F883
:104B300020110843C0056DD50FAA3946304610F044
:104B4000C1F8D4E9172080FB0001C2FB0201626EAC
:104B5000374FC2FB02014FF08042801A71F1020010
:104B600014DB04A80FF0C0FBDDE9042080FB00018A
:104B7000C2FB0201069AC2FB02014FF08042801A7A
:104B800071F1020002DB0420B8630BE0B86B04286B
:104B900008D041F28832022806D0032804D0012828
:104BA00052D009E0002507E0E16E91FBF2F5012DFE
:104BB00000DA0125032800D0AD0022480024454337
:104BC00010980794800229460FF061FE08900F9814
:104BD0002946404280020FF05AFECDE909040BAA93
:104BE000314607A80FF0BEFE32460BA910460FF063
:104BF00063FE31460846FFF750FD69460C480FF04A
:104C00008EFE4246694630460FF0ACFE12B00020E0
:104C1000BDE8F08720E00000112D4454FB2109403D
:104C200000000000000070400000000000806640AE
:104C3000FC3E002071981C00DB0F4940000034430B
:104C400000008037A69BC400E06E90FBF2F00128C4
:104C500000DA01204500AFE7334619463846E26ED8
:104C6000FFF7A0FBC9E770B50446008EC105D4F874
:104C7000200107D4B4F87410C90503D4C10501D4C8
:104C8000002070BDC0F30120032807D02046FFF7A5
:104C900000FF2348A16B10F039FCF1E704F588719F
:104CA0001F482EC980E82E00F3E71E4810F040BCD4
:104CB0001B4810B56C21103801F05CF918484FF012
:104CC00080411038016101600162C163C16500204B
:104CD00010BD184810B5082213A1006801F040F873
:104CE00008B1322010BD1322BDE81040C8210D4884
:104CF00010F076B810B5FFF7DBFF002805D1AFF252
:104D00002D00BDE8104010F02FB910BD10B50548BA
:104D100010F00EFCAFF24500BDE8104010F03ABCB8
:104D20000C3F0020674C0008654D504C20352E315B
:104D3000000000004000002000209FEDFE0AFE4A17
:104D4000DFEDFE0A02EB8001401C81ED080AC0B2D3
:104D5000C1ED0B0A0328F5D37047F74A002002EB98
:104D60008001D1ED080A91ED2D0AF4EEC00AF1EEB2
:104D700010FA01D281ED080AD1ED0B0AF4EEC00A57
:104D8000F1EE10FA01DD81ED0B0A401CC0B20328E0
:104D9000E5D370473EB50B46B0F8481009040091C2
:104DA000B0F84A10009A09040191B0F84C100904B7
:104DB0000291E1494C6E121B0092019A8C6E121BFB
:104DC0000192029AC96E511A0291816EB0F84400A4
:104DD0006A4680B20EF0F4FF3EBDF0B5D64F002417
:104DE0002546D7F894208DB02E46012A01D1C7F868
:104DF000946009A9FFF7CEFF05A80FF0C5F9059942
:104E000009986022A0EBA130099006990A98A0EBBE
:104E1000A1300A9007990B98A0EBA130C8490B90DC
:104E2000081F01F040F80DF1240CC5489CE80E0065
:104E3000143080E80E0068460FF056FAC049602230
:104E40006C31081F01F02FF8BD489DE80E0080303E
:104E500080E80E0000210922D7F82C04401CC7F876
:104E60002C0401EB410007EB8000DDF800C0D0F816
:104E70004C33491C93FBF2F31C44D0F850330929FE
:104E800093FBF2F31D44D0F8543393FBF2F31E442A
:104E9000D0F8B83393FBF2F363440093D0F8BC33FB
:104EA000DDF804C093FBF2F363440193D0F8C00330
:104EB000029B90FBF2F018440290CDDB002C00DA4C
:104EC0006442002D00DA6D42002E00DA764200982E
:104ED000002800DA404200900198002800DA4042A1
:104EE00001900298002800DA4042029000990020C8
:104EF0008C4200DA012001998D4200DA401C0299AF
:104F00008E4200DA401CD7F82C14092900DB401C23
:104F100004280DD197F8240402280BD901468648AD
:104F2000D7F82824643010F0A1F8012010F098F888
:104F30000DB0F0BD10F082F8FAE72DE9F0417E4D9A
:104F400000272DED048B06463C4685F824749FED22
:104F50007D9B9FED7E8BC5F8287405EB8400D5ED15
:104F60000F0A90ED330AB4EEE00AF1EE10FA1EDB00
:104F700095ED140B53EC182B51EC100B13F08EFC29
:104F800041EC100B0BF0C4FC53EC192B51EC100B43
:104F900013F03CFA0BD295F824040121401C85F84B
:104FA0002404D5F82804A1400843C5F82804641C4B
:104FB000E4B2032CD1D395F82404B8B3002406EB53
:104FC000C40090ED000B51EC100B13F097F905EBBA
:104FD0008401641CE4B24866032CF0D3C5F82C7439
:104FE000A868042802DA95F82404A86095F8240437
:104FF00003281BD15749E868884217DC95ED140B4C
:1050000053EC182B51EC100B13F048FC41EC100B37
:105010000BF07EFC53EC192B51EC100B13F0F6F94E
:1050200004D2A868032801D10420A8604A4928694D
:1050300088421DDA4949E868884219DC95ED140B6D
:1050400053EC182B51EC100B13F028FC41EC100B17
:105050000BF05EFC9FED421B51EC100B53EC112B3F
:1050600013F0D4F904D2A868042801D10520A8605F
:10507000BDEC048BBDE8F0812DE9F0412E4C0746D4
:10508000D4F8A404012802D000252846F2E73649C6
:10509000F7EE000AA1F1E800B7EE000A0646FBF7BA
:1050A000B2FA254A3046503202F5AC71FBF74DFD9D
:1050B0000500EAD06068401C606094ED140B51EC70
:1050C000100B13F01BF9B96E0FF0E1FB00EE100AA4
:1050D000DFED260AB8EEC00A20EE200A10EE100A14
:1050E00013F0C6FCC4E9140194ED6A0B51EC100BEB
:1050F00013F004F9A06594ED6C0B51EC100B13F058
:10510000FDF8E06594ED6E0B51EC100B13F0F6F822
:10511000206694ED680B9FED161B51EC100B53ECC1
:10512000112B13F0ADFAB0D231469FED130AF0EE19
:10513000400A23E000401CC6683F002000401C4697
:10514000B84200209A9999999999B93F00000000B6
:105150000000F03FAE47E13D00007A43BC74933C51
:105160009CC420B07268913F30410020000080371D
:10517000000000000070A740CDCCCC3E0846FBF7F5
:1051800042FA82E7D0ED030A90ED040A00210122E1
:10519000F4EEC00A0223F1EE10FA12DD90ED051ACA
:1051A000F4EEC10AF1EE10FA0BDDB4EEC10A0164AF
:1051B000F1EE10FA02DBC0E911237047C0E91132A9
:1051C0007047B4EEE00AF1EE10FA12DD90ED051A28
:1051D000B4EEC10AF1EE10FA0BDDF4EEC10A02647E
:1051E000F1EE10FA02DBC0E911137047C0E911318A
:1051F0007047F4EEC00A0364F1EE10FA02DBC0E976
:1052000011127047C0E911217047002319469FED24
:10521000FE0AC36400EB8102491C82ED000A82EDA4
:10522000090A0329F6DB0121C0E91D13704730B5D7
:1052300004461420A0650A202066002584F87050DA
:105240002046FFF7E2FF656530BD70B52DED048B9C
:1052500086B06946FFF79EFD9FEDEC8B1FED3D9AF2
:1052600000246E4603AD56F8240000EE100A05EB4C
:105270008400B8EEC00A20EE090A80ED000A20EE94
:10528000000A10EE100A13F0F3FB53EC182B12F087
:10529000EDFD41EC180B641C032CE4DBB0EE480A76
:1052A000F0EE680A0BF0EAFDDA4EB0EE408AF0EE5E
:1052B000608A002455F8240013F0DAFB53EC182B15
:1052C00012F088FE12F0A0FD00EE100A06EB84003A
:1052D00000F58060641CD0ED0C0A032C30EE200A2F
:1052E00080ED0C0AE6DBD6F88404401CC6F8840482
:1052F0000120C6F8AC0406B0BDEC048B70BD70B5DF
:1053000005462DED028B86B004AA03A968460FF06E
:10531000BFF99FEDBE8B00246E4606EB840090ED36
:10532000000A20EE000A10EE100A13F0A1FB53EC65
:10533000182B12F09BFD41EC180B641C032CECDBCA
:10534000B0EE480AF0EE680A0BF098FDB0EE408A25
:10535000F0EE608A002456F8240013F089FB53EC29
:10536000182B12F037FE12F04FFD00EE100A05EB7D
:105370008400641CD0ED000A032C30EE200A80ED7E
:10538000000AE8DB686D401C68650120E86706B02C
:10539000BDEC028B70BDF0B504460021F7EE001A9B
:1053A0009FED992A94ED140A04EB8100B8EEC01A1F
:1053B000D0ED000A80EE810AB5EEC00AF1EE10FAD7
:1053C00002DBB0EE401A01E0B1EE401AD0ED060A61
:1053D000F5EEC00AF1EE10FA01DAF1EE600A71EEB4
:1053E000600AC0ED0C0A80ED060A94ED0F1AD0EDAC
:1053F000092A71EE610A00EEA20AC0EE010AC0EDB0
:10540000090AF5EEC00AF1EE10FA01DAF1EE600ACF
:10541000C0ED030A491C80ED002A0329C2DB2046A7
:10542000FFF7B0FEE06CB0F57A7F01DA401CE06473
:1054300094F8707000210526042303250122206CB6
:10544000062F09D2DFE807F00309102B52376267F5
:10545000A267E16484F87020F0BDE06F0128FBD101
:10546000022084F870000DE004EB8000D4ED190AEE
:1054700090ED030AB4EEE00AF1EE10FA04DB84F8D2
:10548000703031E0A167F0BDD4ED1A0AB4EEE00A45
:10549000F1EE10FA22D934E06267A267F0BD04EBA6
:1054A0008000D4ED190A90ED030AB4EEE00AF1EEA3
:1054B00010FAE4DAF0BD04EB8000D4ED1A0A90EDA6
:1054C000030AB4EEE00AF1EE10FA07D9006B524E6F
:1054D000B04206D9216EE06C8842EBDB84F8705054
:1054E000DAE784F87030E1646167CBE704EB8000B1
:1054F000D4ED1B0A90ED030AB4EEE00AF1EE10FAC7
:10550000D8D884F87060E164C6E710B5044600EEB0
:10551000104AB8EEC00ADFED410A20EE200A9FEDE6
:10552000401AC0EE010AB6EE000A20EE800A10EE24
:10553000100A13F09DFA41EC100B0BF0DDF89FED13
:10554000391B51EC100B53EC112B12F09BFF12F096
:10555000D5FE01462F48C0E9204110BD2DE9F04F8E
:1055600000242DED028B91B0054604940594069419
:10557000C06E44F62061274E884206DBD6F88010C4
:10558000884210D0FFF7C1FF0DE0D6F84823104441
:10559000C6F8480388427DDBE96E814201D0FFF7FF
:1055A000B4FFC6F84843286BC6F8B0042846FFF796
:1055B0004CFE06F5906003C8814204DB1B48FFF7F0
:1055C000EAFEC6F88444D6F8A804012802D1284689
:1055D000FFF703FCD6F8A40401285BD104A80EF061
:1055E000A1FE9DED040ADDED050A20EE000A00EEA5
:1055F000A00ADDED060A00EEA00A0BF07CFC86EDA9
:10560000030ADFED0B0A15E00000000000000000B7
:1056100000000000683F0020CDCC4CBD368D2740F7
:1056200000247449000000000000D041984300208D
:105630000000804620EE200AC149A146ADF8204076
:10564000BDEEC00A099110EE100AADF81C00ADF8CD
:105650001E4007A8FDF7BEFA68460EF0A5FE316FA2
:1056600000980FF014F90446716F01980FF00FF9CC
:105670000444B16F02980FF00AF90444F16F0398E3
:105680000FF005F904EB00089DE80F0000240DF170
:10569000340A00E0A2E006F170079FEDAA8A87E8CD
:1056A0000F000DF1280B05EB4407A96E37F8480FE2
:1056B00000040FF0ECF800EE100A4AF8240006EBA4
:1056C0008400B8EEC00A20EE080A80ED050A38888A
:1056D00001044BF82410641CE4B2032CE3D3984873
:1056E0000AA9E8380446FBF75EF83168D6F82803C3
:1056F000884273DB95ED390AD6ED360AB8EEC00A5A
:10570000F5EEC00A20EE080AF1EE10FA05D070EEB0
:10571000600AF0EEE00AC6ED370A86ED360AB06898
:10572000062818D2DFE800F0030303030D249FEDE1
:10573000860AC82086ED0E0AB7EE000A86ED0F0A2B
:1057400008E09FED820A86ED0E0A9FED810A642033
:1057500086ED0F0A3064288EC005099812D4FDF733
:1057600048F913F0B3F900EE100A5FED530A11E0A7
:105770009FED780A86ED0E0A9FED770A322086EDBE
:105780000F0AE7E7FDF78FF813F0A0F900EE100A13
:10579000DFED720A982180EE201A86ED041A09982E
:1057A00000F0E8FBD6F88410414543DA96ED040A90
:1057B000B5EEC00AF1EE10FA3CDDD6ED0E0AB4EEFD
:1057C000E00AF1EE10FA35D2316C7068884206DAE0
:1057D0002846FFF751FC002859D00CE056E06049FC
:1057E000D6F8B000884206DB2846FFF745FC0028C3
:1057F0004DD0C6F80490002006EB8001401C91EDCE
:10580000050AC0B281ED2D0A0328F5D3FFF7A5FAEA
:10581000002006EB8001401C91ED080AD1ED0B0A37
:10582000C0B2032830EE600A81ED330AF1D34D484F
:10583000FFF783FB002006EB8001401C91ED260A58
:10584000D1ED050AC0B2032830EE600AB0EEC00AFE
:1058500081ED290AEFD396ED290AD6ED2A0A002018
:1058600030EE200AD6ED2B0A30EE200A86ED2C0A07
:1058700006EB8001401C91ED050AC0B281ED260ABD
:105880000328F5D3E821204600F074FB002011B076
:10589000BDEC028BBDE8F08F10B54FF49761324834
:1058A00000F068FB304C0A20206040072067FFF7BB
:1058B00043FA04F58660FFF7BAFC2068C4F8800458
:1058C0009FED2A0A04F580601E2180ED1B0A9FEDE2
:1058D000280AC4F88C1480ED260A9FED260A80ED74
:1058E000250A9FED250A80ED270A1920FDF722FCE5
:1058F000002010BD012240F25231AFF29F300FF074
:105900006FBAAFF2A7300FF013BE10B5FFF7C4FFA8
:10591000002805D1AFF22300BDE810400FF024BBF2
:1059200010BD10B5AFF2CB300FF002FEAFF23B006E
:10593000BDE810400FF02EBE0B4880687047000095
:1059400018420020000080370080BB4400009643CE
:105950009A99993F000070423333B33F0050C347D8
:10596000CDCC4C3D10410020683F0020000000429B
:10597000CDCCCC3ECDCC4C3F3333333F7047B2F12E
:1059800020030AD5C2F1200301FA02F120FA03F341
:1059900000FA02F041EA0301704700FA03F14FF008
:1059A00000007047B2F120030AD5C2F1200320FAAB
:1059B00002F001FA03F341FA02F140EA03007047F2
:1059C00041FA03F04FEAE171704710B54C1084EAD8
:1059D000530404D54042C1F1000138BF491E1B42A7
:1059E00004D55242C3F1000338BF5B1E00F0EDFA4C
:1059F00014F0804F04D04042C1F1000138BF491E6D
:105A000014F0004F04D05242C3F1000338BF5B1EB4
:105A100010BD00001CB50C46064B7B446946009047
:105A2000204600F00EFE04460020694600F01CFEF1
:105A300020461CBD4B0C00000FB4044910B503AA4E
:105A4000029800F017FE10BC5DF814FB1C0000204B
:105A50000FB41CB5084B06AA7B4469460090059814
:105A600000F0EFFD04460020694600F0FDFD2046F1
:105A70001CBC5DF814FB00000D0C000070B5044662
:105A800085690068C10601D5302600E02026C007E0
:105A900007D070BDD4E9012130469047206A401CF0
:105AA00020626D1EF6D570BD70B50446856900781C
:105AB000C00707D170BDD4E9012120209047206A9A
:105AC000401C20626D1EF6D570BD00002DE9F0412E
:105AD0000646002410687529314616A510D000F03E
